:02000004080AE8
:1000000000000A08C41F0A080000060006000501D7
:080010000402E80500000000F5
:04001800301C0A0886
:10001C0009480A4908B5884205D0094A824202D0EB
:10002C00121A01F0A7FD0748074A0021121A01F025
:10003C00ACFD064808BD00BF00000020341F0A08B4
:10004C006800002068000020680700206807002076
:10005C0070B501F0CBF8074B074C1E46E41AA40808
:10006C000025A54204D056F8253098470135F8E70D
:10007C0070BD00BFEC1E0A08301F0A0800F011B852
:10008C0008B500F00FF8BDE8084001F071B800F0B9
:10009C001DBC0078B0FA80F0400970470123037052
:1000AC0070477047704700F071BA0000154A002382
:1000BC001370154A15491370154AC364116015491C
:1000CC00154A80F84A30116080F83D3080F83C3099
:1000DC0043710371C37083704370037080F83A30BE
:1000EC0080F8393080F8383080F83B30C3800023FA
:1000FC0043630363C362836243620362C3608360CE
:10010C00704700BF610100207000002071000020CA
:10011C006C000020E90000206401002038B50D4679
:10012C00FFF7C4FFC56438BD00F030BA70477047A4
:10013C0010B50446806808B100F000FA204610BDE6
:10014C0038B50C46054628220021204601F01DFD3D
:10015C000B220849204601F051FD00230122E372D5
:10016C00E260A9696362002321616261A361E361BA
:10017C00236238BD441C0A0810B504462C2101F03A
:10018C0028F9204610BD0368C9B29B6818470000C7
:10019C00064A417702604FF0FF3282618277FF217D
:1001AC0080F820201122C17742627047541C0A0843
:1001BC0038B50B4D296811F001040FD12846FFF713
:1001CC0068FF58B12146074800F03DFD2846FFF76F
:1001DC0065FF054A0549034801F0F6F8014838BDAA
:1001EC00680100206C010020680000203D010A0815
:1001FC002DE9F04190F92030054601330F4606D128
:10020C00FFF7D6FF3946BDE8F04100F092BD072656
:10021C0000244FF0010895F92000002180B201F074
:10022C004FF895F91E0008FA06F1394080B201F03A
:10023C0047F895F92000012180B201F041F895F9B9
:10024C001F00640080B2E4B201F053F808B144F02E
:10025C00010416F1FF36DED22046BDE8F081000025
:10026C0008B5FFF7A5FF012100F0FCFCFFF7A0FF8C
:10027C000549012200F02CFDFFF79AFFBDE808406C
:10028C00002100F0FFBC00BF20A1070038B590F999
:10029C001D30044601330D461CD101F057F894F97A
:1002AC001C1000F08EFB01F051F8036829469B6886
:1002BC00984701F04BF800F08BFB01F047F8012256
:1002CC00217F00F077FB01F041F803685B699847E8
:1002DC00C5B21BE090F92030013301D1FFF7C0FF0C
:1002EC0094F91D00002180B200F0EAFF45F0800176
:1002FC002046FFF77DFF00212046FFF779FF0546DA
:10030C0094F91D00012180B200F0DAFF284638BDB7
:10031C0008B52321FFF7BAFFC0F3011008BD38B5AB
:10032C0090F91D300446013342D101F00FF894F9D5
:10033C001C1000F046FB01F009F8A821FFF723FF81
:10034C0001F004F800F044FB01F000F80622217FD4
:10035C0000F030FB00F0FAFF03685B699847E0801F
:10036C0000F0F4FF03685B699847E38843EA0020D8
:10037C00E08000F0EBFF03685B699847208100F098
:10038C00E5FF03685B699847238943EA00202081D5
:10039C0000F0DCFF03685B699847608100F0D6FFD2
:1003AC0003685B699847638943EA002060813CE0FD
:1003BC0090F92030013301D1FFF752FF94F91D0061
:1003CC00002180B200F07CFFE8212046FFF710FFEF
:1003DC00FF212046FFF70CFFFF21E0802046FFF7AE
:1003EC0007FFE388FF2143EA0020E0802046FFF767
:1003FC00FFFEFF2120812046FFF7FAFE2389FF2113
:10040C0043EA002020812046FFF7F2FEFF216081A5
:10041C002046FFF7EDFE6389012143EA002060814D
:10042C0094F91D0080B200F04BFF2046FFF770FFDF
:10043C00032809D002280AD001280BD0002843F643
:10044C00FC7018BF012007E04FF4006004E04FF48B
:10045C00805001E041F6FE7001F0DAF90546B4F97E
:10046C00060001F0D5F9294601F0DAFAE060B4F99A
:10047C00080001F0CDF9294601F0D2FA2061B4F957
:10048C000A0001F0C5F9294601F0CAFA606138BDCD
:10049C0070B50C460546242632460021204601F054
:1004AC0074FB2660AB69284663600123A3600023BC
:1004BC002361FFF734FFEB6863612B69A3616B6900
:1004CC00E36170BD00F062B810B500F05FF800F0A9
:1004DC00C9FC084C01460848FFF720FE0C212046B9
:1004EC00FFF756FE2046BDE81040044A044900F0D0
:1004FC006BBF00BF78010020A40100206800002021
:10050C003B010A0800F042B810B58368044613B1E9
:10051C00032201469847204610BD0000024B0122E1
:10052C001A7000F033B800BFF401002008B5024B7C
:10053C001B685B6C019308BDD001060808B5024B23
:10054C001B689B6C019308BDD001060808B5024BD3
:10055C001B68DB6C019308BDD001060808B5024B83
:10056C001B685B6D019308BDD001060808B5024BF2
:10057C001B685B68019308BD9C01060808B5024B1B
:10058C001B685B69019308BD9C01060808B5024B0A
:10059C001B681B68019308BDB001060808B5024B27
:1005AC001B68DB68019308BDB001060808B5024B57
:1005BC001B681B69019308BDB001060808B5024B06
:1005CC001B685B69019308BDB001060808B5024BB6
:1005DC001B689B6D019308BDAC01060808B5024B66
:1005EC001B68DB6D019308BDAC01060808B5024B16
:1005FC001B681B6E019308BDAC01060808B5024BC5
:10060C001B685B6E019308BDAC01060808B5024B74
:10061C001B689B6E019308BDAC01060808B5024B24
:10062C001B68DB6E019308BDAC01060808B5024BD4
:10063C001B681B6F019308BDAC01060808B5024B83
:10064C001B685B6F019308BDAC01060808B5034B32
:10065C001B68D3F88030019308BD0000AC0106087C
:10066C0008B5034B1B68D3F89030019308BD00000C
:10067C00AC01060808B5024B1B689B68019308BDCA
:10068C00B401060808B5024B1B68DB68019308BD72
:10069C00B401060808B5024B1B681B69019308BD21
:1006AC00B401060808B5024B1B685B69019308BDD1
:1006BC00B401060808B5024B1B68DB69019308BD41
:1006CC00B401060808B5024B1B681B6A019308BDF0
:1006DC00B401060808B5024B1B685B6A019308BDA0
:1006EC00B401060808B5024B1B689B69019308BD51
:1006FC00C401060808B5024B1B685B6A019308BD70
:10070C00C401060808B5024B1B689B6A019308BD1F
:10071C00C401060808B5024B1B68DB6A019308BDCF
:10072C00C401060808B5024B1B681B6B019308BD7E
:10073C00C401060808B5024B1B685B6B019308BD2E
:10074C00C401060808B5024B1B689B6B019308BDDE
:10075C00C401060808B5024B1B681B6C019308BD4D
:10076C00C401060808B5024B1B681B68019308BD41
:10077C00D801060808B5024B1B681B69019308BD1C
:10078C00D801060808B5024B1B685B69019308BDCC
:10079C00D801060808B5024B1B689B69019308BD7C
:1007AC00D801060808B5024B1B68DB69019308BD2C
:1007BC00D801060808B5024B1B681B6A019308BDDB
:1007CC00D801060808B5024B1B689B6C019308BD49
:1007DC00C001060808B5024B1B685B68019308BD95
:1007EC00A401060808B5034B1B68D3F8903001939D
:1007FC0008BD0000A401060808B5034B1B68D3F81C
:10080C009C30019308BD0000A401060808B5024BFA
:10081C001B68DB6B019308BDCC01060808B5024BC5
:10082C001B685B68019308BDC801060808B5024B3C
:10083C001B689B68019308BDC801060808B5024BEC
:10084C001B68DB68019308BDC801060808B5024B9C
:10085C001B681B69019308BDC801060808B5024B4B
:10086C001B685B69019308BDC801060808B5024BFB
:10087C001B689B69019308BDC801060808B5024BAB
:10088C001B68DB69019308BDC801060808B5024B5B
:10089C001B681B6A019308BDC801060808B5024B0A
:1008AC001B681B6B019308BDC801060808B5024BF9
:1008BC001B685B6B019308BDC801060808B5024BA9
:1008CC001B681B68019308BDA001060808B5024B04
:1008DC001B685B68019308BDA00106087047F8B55A
:1008EC00064615460C468F18BC4206D0336814F8E1
:1008FC00011B9B6830469847F6E72846F8BD002256
:10090C00007CFFF773BE0021007CFFF777BE00214F
:10091C00007CFFF77BBE0021007CFFF77FBE00212F
:10092C00007CFFF783BE10B50446142100F051FD86
:10093C00204610BD10B50446002363604FF47A7353
:10094C00A360044B2174084623601146FFF77EFE1A
:10095C00204610BD701C0A0870B50C46064686B0C1
:10096C0014252A46002101A801F00FF92378002252
:10097C008DF80830636801A90393E368307C049315
:10098C00237AADF804500593FFF76AFE06B070BDEC
:10099C001FB500338DF800104FF06401039118BFA0
:1009AC000123694601928DF80830FFF7D5FF05B099
:1009BC005DF804FB0123FFF7EBBF0022007CFFF77F
:1009CC0005BEC9B2FFF7F9BF0022007CFFF706BED7
:1009DC000121FFF7F9BF0021007CFFF72FBE704704
:1009EC0010B50446182100F0F4FC204610BDF8B5F3
:1009FC000F4600F10806051D002416F8011D0A22F9
:100A0C00384600F0EAF8AE42044407D0002CF4D08B
:100A1C002E21384600F0DEF80444EEE72046F8BDFF
:100A2C0010B50446044B112240F8043B002101F0A0
:100A3C00ACF8204610BD00BF981C0A080346074AB4
:100A4C0010B543F8042B01F1100251F8044B9142FC
:100A5C0043F8044BF9D10A781A7010BD981C0A0897
:100A6C00024A41600260042202757047981C0A0811
:100A7C0010B59DF8084044EA032343EA024242EAD7
:100A8C00016104234160037510BD000037B5044DAE
:100A9C0005609DF818500095FFF7EAFF03B030BDD4
:100AAC00981C0A080068FFF751BD0000014A024B70
:100ABC001A6070471A1D0A08F801002000231A4614
:100ACC004068FFF7ABBE002202214068FFF7B6BEBC
:100ADC00002211464068FFF7A9BE0022114640686B
:100AEC00FFF7B4BE00231A4619464068FFF7B6BE9E
:100AFC0000231A4619464068FFF7B8BE002281F061
:100B0C0001014068FFF7BABE00224068FFF7C6BE7D
:100B1C00002211464068FFF7C9BE0022114640680A
:100B2C00FFF7B4BE70B516468EB0044608A8FFF7A2
:100B3C0077FF1122002103A801F027F8304601F0BD
:100B4C0055F800250A4B009581B25B6803AA304624
:100B5C00FFF738FE20B129462046FFF781FF03E05E
:100B6C0003A92046FFF76AFF20460EB070BD00BFF8
:100B7C0080060020024B034A1A6000225A6070471C
:100B8C00FC010020901D0A08F8B506460D468F188A
:100B9C000024BD420CD0336815F8011B9B6830460D
:100BAC009847002801DB0444F3E7002C08BF0446F7
:100BBC002046F8BD70B505460C46084649B101F013
:100BCC0015F82B68024621462846BDE87040DB68C4
:100BDC00184770BD03689B681847012A98BF0A2202
:100BEC0030B50B468BB000218DF824100DF1230489
:100BFC00B3FBF2F505FB1233DBB2092B94BF303398
:100C0C003733DBB2214604F801392B46002DEFD1E6
:100C1C00FFF7D0FF0BB030BD10B50446FFF774FCE6
:100C2C00204610BD034800238360034A034900F0AB
:100C3C00CBBB00BF0402002068000020250C0A0872
:100C4C000068FFF78BBC70B504460E46002540F8D3
:100C5C00085FFFF76BFC30462670FFF72BFD6560D5
:100C6C00204670BD70B505460E4600F108042046BE
:100C7C00FFF718FF28783146FFF7FCFC2046FFF7FA
:100C8C00DFFF70BD70B505460E4600F10804204626
:100C9C00FFF708FF28783146FFF7F4FC2046FFF7F2
:100CAC00CFFF70BD400830B5186000241868E5B25D
:100CBC00884206D90134082C02D040081860F5E7A8
:100CCC000725024B5B5D137030BD00BFBC1D0A08CD
:100CDC002DE9F041054600F1080688B0002402FB1E
:100CEC0001F730460294FFF7DDFE95F800802146AF
:100CFC00142203A800F049FF0B23224603A9404607
:100D0C00ADF80C30FFF7E6FC02AB0DF107023946EB
:100D1C0004988DF80740FFF7C5FF9DF80710287859
:100D2C00FFF7B8FC3046FFF78BFF029808B0BDE820
:100D3C00F08108B50078FFF7B5FCC0B208BD0078AB
:100D4C00FFF7C0BC10B50446006818B1FFF7BEFD34
:100D5C000023236010BD10B50446FFF7F3FF2046B7
:100D6C0010BD00004FF6FF7310B5084C002020603A
:100D7C00A080A07120816381FFF72CFD2046BDE887
:100D8C001040034A034900F01FBB00BF14020020AF
:100D9C0068000020630D0A08024B1A68024B1A60A7
:100DAC00704700BF000000202002002070474174F3
:100DBC00704708B5007CFFF7CDFC20EAE07008BD59
:100DCC0008B5007CFFF79EFC20EAE07008BD08B572
:100DDC00007CFFF7A7FC30EA200028BF4FF0FF3063
:100DEC0008BD08B5007CFFF795FC30EA200028BF51
:100DFC004FF0FF3008BD007CFFF79CBC10B50446DB
:100E0C00142100F0E6FA204610BD70B5457C04466E
:100E1C000E4625B9007CFFF79DFC002805DD314608
:100E2C00207CBDE87040FFF765BC284670BD000013
:100E3C0010B5044608461146002262604FF47A72DF
:100E4C00A260054A20742260012262741A46FFF7E0
:100E5C0049FC204610BD00BFF81D0A08007CFFF7B6
:100E6C0071BC000038B50C4D296811F0010411D18A
:100E7C002846FFF70EF968B1084A2146084B094885
:100E8C00FFF7D6FF2846FFF709F9074A0749054837
:100E9C0000F09AFA034838BDBC020020C0020020C2
:100EAC00380200202402002068000020B90D0A0836
:100EBC0041747047704708B50021007CFFF76AFC4D
:100ECC0030EA200028BF4FF0FF3008BD08B50121E3
:100EDC00007CFFF75FFC30EA200028BF4FF0FF30AA
:100EEC0008BD08B5007CFFF74DFC20EAE07008BD9A
:100EFC0008B5007CFFF73EFC20EAE07008BD007CE2
:100F0C00FFF758BC10B50446142100F062FA2046D5
:100F1C0010BD38B50446007C0D46FFF733FC0028A5
:100F2C0001DC607C28B12946207CFFF73BFC20EAE1
:100F3C00E07038BD10B50446002363604FF47A733B
:100F4C00A360054B0846236001232174637411468A
:100F5C00FFF708FC204610BD281E0A0810B50446F1
:100F6C001422002100F011FE054B20466360054B56
:100F7C00E36040F2011323818123238210BD00BF63
:100F8C00C90300204803002030B50E4D87B001A8DE
:100F9C00FFF7E4FF296811F0010410D12846FFF790
:100FAC0078F860B101AA21460748FFF7C3FF28462D
:100FBC00FFF774F8054A0649034800F005FA0248A1
:100FCC0007B030BD44030020CC0400206800002092
:100FDC00C10E0A0810B504461422002100F0D5FDFC
:100FEC00054B20466360054BE36040F201132381FF
:100FFC008123238210BD00BF7C050020E404002067
:10100C0010B50E4C86B001A8FFF7E4FF2368DB0790
:10101C0010D42046FFF73DF860B101AA0121084821
:10102C00FFF788FF2046FFF739F8064A06490448BF
:10103C0000F0CAF9024806B010BD00BFE004002061
:10104C006805002068000020C10E0A080022114625
:10105C004068FFF7FBBBF0B5164689B011220F466E
:10106C000446002103A800F090FD304600F0BEFDC0
:10107C000025009581B27B6803AA3046FFF7A2FBDE
:10108C0020B129462046FFF7EBFC03E003A92046DC
:10109C00FFF7D4FC204609B0F0BD00221146406891
:1010AC00FFF7F4BB002211464068FFF7FFBB00229C
:1010BC004068FFF7F3BB002281F001014068FFF7A5
:1010CC00DDBB00231A4619464068FFF7CFBB00234F
:1010DC001A4619464068FFF7C1BB0022114640680A
:1010EC00FFF7A4BB002202214068FFF7A7BB002337
:1010FC001A464068FFF792BB024B04225A60024A20
:10110C001A60704780060020581E0A0808B5144B58
:10111C0033B1FFF739FF03681B699847002816DCC9
:10112C00104B33B1FFF79EFE03681B6998470028EC
:10113C0010DC0D4B0BB1AFF300800C4B7BB1FFF708
:10114C005FFF03681B699847002806DC08BDAFF3F6
:10115C000080E5E7AFF30080EBE7AFF3008008BD5C
:10116C000000000000000000000000000000000073
:10117C0008B5FFF7CBFFFFF701FA014B186008BD6C
:10118C00900600200248034A0349121A00F0F2BCF0
:10119C000040024004400240301F0A0807B50023FB
:1011AC0000931A466FF07701FFF726FB03B05DF84A
:1011BC0004FB000007B543880A2B08D0502B09D13B
:1011CC00094B1B683BB103B05DF804EB1847FFF704
:1011DC00E5FF06E0002300931A466FF07701FFF756
:1011EC000BFB03B05DF804FB8806002038B5104CEF
:1011FC00104D2368AB42104B0CBF012200221A7019
:10120C0002D0FFF7BFFF2560FFF7B0F9044600F0EE
:10121C00C5FC0A4B13B12046AFF3008000210748F0
:10122C00FFF7F4FABDE8384000210548FFF7DABAB9
:10123C00004002401E1C279A8C0600200000000073
:10124C00C1110A0870B51A4E0446316811F0010537
:10125C000FD13046FEF71DFF58B129461548FFF750
:10126C00F2FC3046FEF71AFF134A1449114800F0FD
:10127C00ABF81048FFF763FD28B1A4F10D03022B66
:10128C0001D8002070BD00F061F8FFF7A4FB08B195
:10129C00012CF6D9FFF7E6FDFFF7E0FD18B1A4F13C
:1012AC001203012BEDD9172C8CBF0020012070BD2F
:1012BC00680100206C010020680000203D010A0834
:1012CC0038B504460D46FFF769F9FF2810D00628FB
:1012DC0004D84D2323FA00F0C30709D42046FFF7A6
:1012EC00B1FF28B129462046BDE83840FFF75EB96A
:1012FC0038BD10B50446FFF751F90438C0B20128C7
:10130C0008D92046FFF79EFF20B12046BDE81040CB
:10131C00FFF754B9002010BD70B5044614252A46B9
:10132C00094E002100F031FC258020253146A560B6
:10133C002561284600F067F831466060284600F0C9
:10134C0062F8E060204670BD841E0A0830B50E4D70
:10135C0087B0296811F0010413D12846FEF799FED5
:10136C0078B101A8FFF7D8FF01AA21460748FFF77B
:10137C00E1FA2846FEF792FE054A0649034800F0BA
:10138C0023F8024807B030BD9406002098060020D0
:10139C0068000020E9080A0813B5084C00231A4617
:1013AC00194600932046FFF771FB2046044A054975
:1013BC0002B0BDE8104000F007B800BFAC0600203A
:1013CC0068000020EB090A080B460146184600F09D
:1013DC00C3BBFEF75CBE0000024B1868BFF35F8F07
:1013EC00704700BFC406002010B5002814BF044687
:1013FC0001242046FFF762FA20B9FFF7EDFF08B190
:10140C008047F6E710BDFFF7EFBF0000244B1A68CA
:10141C00D0075CBF01221A60224B1A68D1075CBF4F
:10142C0001221A60204B1A68D2075CBF01221A6095
:10143C001E4B1A68D0075CBF01221A601C4B1A683D
:10144C00D1075CBF01221A601A4B1A68D2075CBF25
:10145C0001221A60184B1A68D0075CBF01221A606F
:10146C00164B1A68D1075CBF01221A60144B1A681C
:10147C00D2075CBF01221A60124B1A68D0075CBFFE
:10148C0001221A60104B1A68D1075CBF01221A6046
:10149C000E4B1A68D2075CBF01221A60704700BF5E
:1014AC00F4060020F0060020EC060020E8060020E0
:1014BC00E4060020E0060020DC060020D806002010
:1014CC00D4060020D0060020CC060020C806002040
:1014DC00184B1A68D1075CBF01221A60164B1A68A8
:1014EC00D2075CBF01221A60144B1A68D0075CBF8C
:1014FC0001221A60124B1A68D1075CBF01221A60D4
:10150C00104B1A68D2075CBF01221A600E4B1A6886
:10151C00D0075CBF01221A600C4B1A68D1075CBF64
:10152C0001221A600A4B1A68D2075CBF01221A60AA
:10153C00704700BF14070020100700200C07002084
:10154C00080700200407002000070020FC060020EC
:10155C00F8060020184B1A68D1075CBF01221A60EC
:10156C00164B1A68D2075CBF01221A60144B1A681A
:10157C00D0075CBF01221A60124B1A68D1075CBFFE
:10158C0001221A60104B1A68D2075CBF01221A6044
:10159C000E4B1A68D0075CBF01221A600C4B1A68FC
:1015AC00D1075CBF01221A600A4B1A68D2075CBFD4
:1015BC0001221A60704700BF34070020300700205A
:1015CC002C070020280700202407002020070020DB
:1015DC001C07002018070020244B1A68D0075CBF9A
:1015EC0001221A60224B1A68D1075CBF01221A60D3
:1015FC00204B1A68D2075CBF01221A601E4B1A6876
:10160C00D0075CBF01221A601C4B1A68D1075CBF63
:10161C0001221A601A4B1A68D2075CBF01221A60A9
:10162C00184B1A68D0075CBF01221A60164B1A6857
:10163C00D1075CBF01221A60144B1A68D2075CBF39
:10164C0001221A60124B1A68D0075CBF01221A6083
:10165C00104B1A68D1075CBF01221A600E4B1A6836
:10166C00D2075CBF01221A60704700BF64070020DC
:10167C00600700205C07002058070020540700205A
:10168C00500700204C07002048070020440700208A
:10169C00400700203C0700203807002080F0004065
:1016AC0002E000BF81F0004142001FBF5FEA41032E
:1016BC0092EA030F7FEA226C7FEA236C6AD04FEA2E
:1016CC001262D2EB1363C1BFD21841404840414073
:1016DC00B8BF5B42192B88BF704710F0004F40F425
:1016EC00000020F07F4018BF404211F0004F41F441
:1016FC00000121F07F4118BF494292EA030F3FD00D
:10170C00A2F1010241FA03FC10EB0C00C3F120031F
:10171C0001FA03F100F0004302D5494260EB4000AE
:10172C00B0F5000F13D3B0F1807F06D340084FEA19
:10173C00310102F10102FE2A51D2B1F1004F40EB0E
:10174C00C25008BF20F0010040EA03007047490076
:10175C0040EB000010F4000FA2F10102EDD1B0FA41
:10176C0080FCACF1080CB2EB0C0200FA0CF0AABF36
:10177C0000EBC25052421843BCBFD04018437047D4
:10178C0092F0000F81F4000106BF80F400000132DA
:10179C00013BB5E74FEA41037FEA226C18BF7FEAB1
:1017AC00236C21D092EA030F04D092F0000F08BFF3
:1017BC000846704790EA010F1CBF0020704712F0DA
:1017CC007F4F04D1400028BF40F00040704712F119
:1017DC0000723CBF00F50000704700F0004343F07E
:1017EC00FE4040F4000070477FEA226216BF0846B4
:1017FC007FEA23630146420206BF5FEA412390EA77
:10180C00010F40F4800070474FF0000304E000BF6C
:10181C0010F0004348BF40425FEA000C08BF70471D
:10182C0043F0964301464FF000001CE050EA0102E1
:10183C0008BF70474FF000030AE000BF50EA0102F6
:10184C0008BF704711F0004302D5404261EB4101E3
:10185C005FEA010C02BF84460146002043F0B64308
:10186C0008BFA3F18053A3F50003BCFA8CF2083A2D
:10187C00A3EBC25310DB01FA02FC634400FA02FC36
:10188C00C2F12002BCF1004F20FA02F243EB02003D
:10189C0008BF20F00100704702F1200201FA02FC9F
:1018AC00C2F1200250EA4C0021FA02F243EB020092
:1018BC0008BF20EADC7070474FF0FF0C1CEAD052D6
:1018CC001EBF1CEAD15392EA0C0F93EA0C0F6FD097
:1018DC001A4480EA010C400218BF5FEA41211ED075
:1018EC004FF0006343EA501043EA5111A0FB013161
:1018FC000CF00040B1F5000F3EBF490041EAD37136
:10190C005B0040EA010062F17F02FD2A1DD8B3F1B1
:10191C00004F40EBC25008BF20F00100704790F020
:10192C00000F0CF0004C08BF49024CEA502040EA72
:10193C0051207F3AC2BFD2F1FF0340EAC250704738
:10194C0040F400004FF00003013A5DDC12F1190F76
:10195C00DCBF00F000407047C2F10002410021FAE8
:10196C0002F1C2F1200200FA02FC5FEA310040F100
:10197C00000053EA4C0308BF20EADC70704792F079
:10198C00000F00F0004C02BF400010F4000F013AB1
:10199C00F9D040EA0C0093F0000F01F0004C02BFAC
:1019AC00490011F4000F013BF9D041EA0C018FE71B
:1019BC000CEAD15392EA0C0F18BF93EA0C0F0AD021
:1019CC0030F0004C18BF31F0004CD8D180EA010047
:1019DC0000F00040704790F0000F17BF90F0004FE0
:1019EC00084691F0000F91F0004F14D092EA0C0FC2
:1019FC0001D142020FD193EA0C0F03D14B0218BF55
:101A0C00084608D180EA010000F0004040F0FE409A
:101A1C0040F40000704740F0FE4040F44000704736
:101A2C004FF0FF0C1CEAD0521EBF1CEAD15392EAB5
:101A3C000C0F93EA0C0F69D0A2EB030280EA010CA5
:101A4C0049024FEA402037D04FF0805343EA11113E
:101A5C0043EA10130CF000408B4238BF5B0042F19C
:101A6C007D024FF4000C8B4224BF5B1A40EA0C0041
:101A7C00B3EB510F24BFA3EB510340EA5C00B3EB73
:101A8C00910F24BFA3EB910340EA9C00B3EBD10F61
:101A9C0024BFA3EBD10340EADC001B0118BF5FEAB3
:101AAC001C1CE0D1FD2A3FF650AF8B4240EBC250DC
:101ABC0008BF20F0010070470CF0004C4CEA50209D
:101ACC007F32C2BFD2F1FF0340EAC250704740F4EC
:101ADC0000004FF00003013A37E792F0000F00F0DE
:101AEC00004C02BF400010F4000F013AF9D040EA5C
:101AFC000C0093F0000F01F0004C02BF490011F4F0
:101B0C00000F013BF9D041EA0C0195E70CEAD153E7
:101B1C0092EA0C0F08D142027FF47DAF93EA0C0FCE
:101B2C007FF470AF084676E793EA0C0F04D14B02B2
:101B3C003FF44CAF08466EE730F0004C18BF31F064
:101B4C00004CCAD130F000427FF45CAF31F000435E
:101B5C007FF43CAF5FE700BF10B5054C13462CB1CA
:101B6C000A4601460220AFF3008010BD204610BD8E
:101B7C000000000010B5431E0A44914204D011F835
:101B8C00014B03F8014FF8E710BD034602449342A2
:101B9C0002D003F8011BFAE77047000038B5124B6E
:101BAC0005461C68A36BD3B91820FEF787FE43F2D9
:101BBC000E33A06303804AF6CD33438041F23423C5
:101BCC0083804EF26D63C3804DF6EC630381052375
:101BDC0043810B23838101220023C0E90423A36BDF
:101BEC0000221D615A6138BD64000020034613F8C1
:101BFC00012B002AFBD1181A01387047034610B587
:101C0C0042B111F8014B013A03F8014B002CF7D10A
:101C1C001A4400E010BD934202D003F8014BFAE7DE
:101C2C0010BD00001D000A085D000A0889000A08A2
:101C3C008D000A08000000004C4953334448000052
:101C4C0000000000000000003B010A0885010A08A2
:101C5C0039010A089D040A084D010A080000000019
:101C6C0000000000E9080A0833090A080B090A08F1
:101C7C00EB080A0813090A081B090A0823090A08B1
:101C8C002B090A080000000000000000FB090A08EC
:101C9C00EB090A08ED090A08626175640053657264
:101CAC0069616C0055534253657269616C31007403
:101CBC0079706500706172616D00636D64006964B8
:101CCC0000686E64007374726D0066696C74006CED
:101CDC00766C0061646448616E646C657200726558
:101CEC006D6F766548616E646C657200656E756DBE
:101CFC0048616E646C657273004A534F4E53747234
:101D0C0065616D4C6F6748616E646C6572006170E3
:101D1C007000253031307520005D20002564002CCA
:101D2C00200028293A2000205B00636F6465203D69
:101D3C00200025690064657461696C73203D200086
:101D4C000D0A0066006C6E00666E00636F646500C1
:101D5C0064657461696C006E6F6E650074726163AA
:101D6C006500696E666F007761726E006572726FE6
:101D7C00720070616E696300616C6C0000000000A1
:101D8C0000000000C90A0A08D30A0A08DD0A0A087A
:101D9C00E70A0A08F10A0A08FD0A0A08090B0A08E8
:101DAC00150B0A081D0B0A08270B0A08310B0A0829
:101DBC0000081018202830385A00252B3033643A8C
:101DCC00253032750025592D256D2D256454254857
:101DDC003A254D3A2553257A0061736374696D6514
:101DEC00000000000000000000000000B90D0A080F
:101DFC00090E0A08170E0A08950B0A08CD0D0A08D9
:101E0C00EF0D0A08DB0D0A08030E0A08BB0D0A08C1
:101E1C00BF0D0A080000000000000000C10E0A08F7
:101E2C00110F0A081F0F0A08950B0A08FD0E0A0865
:101E3C00C30E0A08D90E0A080B0F0A08EF0E0A087F
:101E4C00BD0E0A080000000000000000FB100A088C
:101E5C00F1100A08E7100A0859100A08DB100A08E2
:101E6C00CF100A08C3100A08BB100A08B1100A08E0
:101E7C00A7100A0863100A08000000000000000008
:101E8C000000000000000000000000000000000046
:101E9C000000000000000000000000000000000036
:101EAC000000000000000000000000000000000026
:101EBC000000000000000000000000000000000016
:101ECC000000000000000000000000000000000006
:101EDC0000000000000000000000000043000000B3
:101EEC00B3000A0835010A08D1040A08D5040A0807
:101EFC0011050A0829050A08B90A0A08810B0A08FB
:101F0C00310C0A08710D0A08A50D0A0805110A08FA
:101F1C00A5130A0819140A08DD140A0861150A0821
:041F2C00E5150A08A5
:041F300000000000AD
:101F3400E51D0A0800000000881E0A08A81E0A08F9
:101F4400C81E0A0800000000000000000000000095
:101F540000000000E81E0A08000000000000000065
:101F6400000000000000000000000000000000006D
:101F7400000000000000000000000000000000005D
:101F8400000000000000000000000000000000004D
:081F9400000000000400002021
:101F9C00FFFFFFFF00000102030405060708090A02
:101FAC000B0C0D0E0F101112131415161718191AFD
:081FBC001B1C1D1E1F20280044
:041FC4007856341205
:04000005080A001CC9
:00000001FF
