:02000004080AE8
:1000000000000A08D4100A080000060006000501D6
:080010000402E80500000000F5
:04001800A80D0A081D
:10001C0009480A4908B5884205D0094A824202D0EB
:10002C00121A00F077FE0748074A0021121A00F056
:10003C007CFE064808BD00BF0000002044100A08E2
:10004C006800002068000020C0050020C0050020CA
:10005C0070B500F0BDFC074B074C1E46E41AA40813
:10006C000025A54204D056F8253098470135F8E70D
:10007C0070BD00BF0C100A083C100A0800F011B843
:10008C0008B500F00FF8BDE8084000F063BC00F0C4
:10009C0011B90078B0FA80F0400970470123037061
:1000AC0070477047704700F011B8000008B5024B5C
:1000BC001B685B68019308BD9C01060808B5024BE0
:1000CC001B685B69019308BD9C01060808B5024BCF
:1000DC001B681B68019308BDB001060808B5024BEC
:1000EC001B689B69019308BDC401060808B5024B47
:1000FC001B685B6A019308BDC401060808B5024B76
:10010C001B689B6A019308BDC401060808B5024B25
:10011C001B68DB6A019308BDC401060808B5024BD5
:10012C001B681B6B019308BDC401060808B5024B84
:10013C001B685B6B019308BDC401060808B5024B34
:10014C001B681B6C019308BDC401060808B5024B63
:10015C001B681B68019308BDD801060808B5024B43
:10016C001B681B69019308BDD801060808B5024B32
:10017C001B685B69019308BDD801060808B5024BE2
:10018C001B689B69019308BDD801060808B5024B92
:10019C001B68DB69019308BDD801060808B5024B42
:1001AC001B681B6A019308BDD801060808B5024BF1
:1001BC001B689B6C019308BDC001060808B5024B77
:1001CC001B685B68019308BDA401060808B5034BC6
:1001DC001B68D3F89030019308BD0000A4010608F9
:1001EC0008B5034B1B68D3F89C30019308BD000085
:1001FC00A401060808B5024B1B68DB6B019308BD14
:10020C00CC01060808B5024B1B685B68019308BD5E
:10021C00C801060808B5024B1B689B68019308BD12
:10022C00C801060808B5024B1B68DB68019308BDC2
:10023C00C801060808B5024B1B681B69019308BD71
:10024C00C801060808B5024B1B685B69019308BD21
:10025C00C801060808B5024B1B689B69019308BDD1
:10026C00C801060808B5024B1B68DB69019308BD81
:10027C00C801060808B5024B1B681B6A019308BD30
:10028C00C801060808B5024B1B681B6B019308BD1F
:10029C00C801060808B5024B1B685B6B019308BDCF
:1002AC00C801060808B5024B1B681B68019308BD02
:1002BC00A001060808B5024B1B685B68019308BDDA
:1002CC00A001060810B58368044613B10322014649
:1002DC009847204610BD704710B50446182100F011
:1002EC00C0FB204610BDF8B50F4600F10806051DF1
:1002FC00002416F8011D0A22384600F0E6F8AE423A
:10030C00044407D0002CF4D02E21384600F0DAF843
:10031C000444EEE72046F8BD10B50446044B112208
:10032C0040F8043B002100F000FD204610BD00BF4A
:10033C00C40D0A080346074A10B543F8042B01F113
:10034C00100251F8044B914243F8044BF9D10A784E
:10035C001A7010BDC40D0A08024A416002600422E2
:10036C0002757047C40D0A0810B59DF8084044EAA0
:10037C00032343EA024242EA01610423416003750C
:10038C0010BD000037B5044D05609DF81850009560
:10039C00FFF7EAFF03B030BDC40D0A08014A024B57
:1003AC001A607047460E0A086C00002000231A469B
:1003BC004068FFF727BF002202214068FFF732BFD9
:1003CC00002211464068FFF725BF00221146406805
:1003DC00FFF730BF00231A4619464068FFF732BFBB
:1003EC0000231A4619464068FFF734BF002281F0FB
:1003FC0001014068FFF736BF00224068FFF742BF9B
:10040C00002211464068FFF745BF002211464068A4
:10041C00FFF730BF70B516468EB0044608A8FFF73C
:10042C007BFF1122002103A800F07FFC304600F076
:10043C00ADFC00250A4B009581B25B6803AA3046DF
:10044C00FFF7B4FE20B129462046FFF785FF03E0F5
:10045C0003A92046FFF76EFF20460EB070BD00BF0B
:10046C00F4040020024B034A1A6000225A607047C1
:10047C0070000020BC0E0A08F8B506460D468F1811
:10048C000024BD420CD0336815F8011B9B68304624
:10049C009847002801DB0444F3E7002C08BF04460E
:1004AC002046F8BD70B505460C46084649B100F02B
:1004BC006DFC2B68024621462846BDE87040DB687F
:1004CC00184770BD03689B681847012A98BF0A2219
:1004DC0030B50B468BB000218DF824100DF12304A0
:1004EC00B3FBF2F505FB1233DBB2092B94BF3033AF
:1004FC003733DBB2214604F801392B46002DEFD1FE
:10050C00FFF7D0FF0BB030BD10B50446FFF7DAFE95
:10051C00204610BD034800238360034A034900F0C2
:10052C009BBA00BF780000206800002015050A085F
:10053C0010B50446006818B1FFF7BCFE0023236019
:10054C0010BD10B50446FFF7F3FF204610BD0000A8
:10055C004FF6FF7310B5084C00202060A080A071EE
:10056C0020816381FFF72AFE2046BDE81040034A34
:10057C00034900F071BA00BF880000206800002019
:10058C004F050A08024B1A68024B1A60704700BFED
:10059C00000000209400002070474174704708B59B
:1005AC00007CFFF7CBFD20EAE07008BD08B5007CAD
:1005BC00FFF7A4FD20EAE07008BD08B5007CFFF74A
:1005CC00ADFD30EA200028BF4FF0FF3008BD08B564
:1005DC00007CFFF79BFD30EA200028BF4FF0FF3076
:1005EC0008BD007CFFF7A2BD10B50446142100F035
:1005FC0038FA204610BD70B5457C04460E4625B928
:10060C00007CFFF79BFD002805DD3146207CBDE812
:10061C007040FFF76BBD284670BD000010B5044656
:10062C0008461146002262604FF47A72A260054AB5
:10063C0020742260012262741A46FFF74FFD204697
:10064C0010BD00BF1C0F0A0838B50C4D296811F0FD
:10065C00010411D12846FFF71CFD68B1084A214658
:10066C00084B0948FFF7DAFF2846FFF717FD074A42
:10067C000749054800F0F0F9034838BD3001002067
:10068C0034010020AC0000209800002068000020FD
:10069C00A5050A0841747047704708B50021007C15
:1006AC00FFF76CFD30EA200028BF4FF0FF3008BD8B
:1006BC0008B50121007CFFF761FD30EA200028BF5E
:1006CC004FF0FF3008BD08B5007CFFF74FFD20EA66
:1006DC00E07008BD08B5007CFFF740FD20EAE07033
:1006EC0008BD007CFFF75ABD10B50446142100F07C
:1006FC00B8F9204610BD38B50446007C0D46FFF70E
:10070C0035FD002801DC607C28B12946207CFFF7F0
:10071C003DFD20EAE07038BD10B50446002363604F
:10072C004FF47A73A360054B0846236001232174B0
:10073C0063741146FFF70AFD204610BD4C0F0A08E2
:10074C0010B504461422002100F0EFFA054B2046A8
:10075C006360054BE36040F2011323818123238204
:10076C0010BD00BF3D020020BC01002030B50E4D75
:10077C0087B001A8FFF7E4FF296811F0010410D13C
:10078C002846FFF786FC60B101AA21460748FFF70F
:10079C00C3FF2846FFF782FC054A0649034800F0D0
:1007AC005BF9024807B030BDB801002040030020BF
:1007BC0068000020A5060A0810B504461422002182
:1007CC0000F0B3FA054B20466360054BE36040F242
:1007DC00011323818123238210BD00BFF00300206D
:1007EC005803002010B50E4C86B001A8FFF7E4FFAB
:1007FC002368DB0710D42046FFF74BFC60B101AA3D
:10080C0001210848FFF788FF2046FFF747FC064AFE
:10081C000649044800F020F9024806B010BD00BF9C
:10082C0054030020DC03002068000020A5060A0801
:10083C00002211464068FFF7FDBCF0B5164689B0A2
:10084C0011220F460446002103A800F06EFA304630
:10085C0000F09CFA0025009581B27B6803AA304613
:10086C00FFF7A4FC20B129462046FFF775FD03E0F5
:10087C0003A92046FFF75EFD204609B0F0BD00221B
:10088C0011464068FFF7F6BC002211464068FFF79E
:10089C0001BD00224068FFF7F5BC002281F0010188
:1008AC004068FFF7DFBC00231A4619464068FFF783
:1008BC00D1BC00231A4619464068FFF7C3BC00227E
:1008CC0011464068FFF7A6BC002202214068FFF7E2
:1008DC00A9BC00231A464068FFF794BC024B0422C3
:1008EC005A60024A1A607047F40400207C0F0A0810
:1008FC0008B5144B33B1FFF739FF03681B699847F0
:10090C00002816DC104B33B1FFF79EFE03681B6901
:10091C009847002810DC0D4B0BB1AFF300800C4B4B
:10092C007BB1FFF75FFF03681B699847002806DC63
:10093C0008BDAFF30080E5E7AFF30080EBE7AFF362
:10094C00008008BD00000000000000000000000056
:10095C000000000008B5FFF7CBFFFFF7AFFB014B22
:10096C00186008BD040500200248034A0349121A06
:10097C0000F0D0B9004002400440024040100A0888
:10098C0007B5002300931A466FF07701FFF728FC98
:10099C0003B05DF804FB000007B543880A2B08D0B0
:1009AC00502B09D1094B1B683BB103B05DF804EB2C
:1009BC001847FFF7E5FF06E0002300931A466FF097
:1009CC007701FFF70DFC03B05DF804FBFC0400207D
:1009DC0038B5104C104D2368AB42104B0CBF0122A4
:1009EC0000221A7002D0FFF7BFFF2560FFF75EFBF5
:1009FC00044600F0A3F90A4B13B12046AFF3008074
:100A0C0000210748FFF7F6FBBDE8384000210548F8
:100A1C00FFF7DCBB004002401E1C279A000500209B
:100A2C0000000000A5090A0813B5084C00231A465B
:100A3C00194600932046FFF7A5FC2046044A0549B9
:100A4C0002B0BDE8104000F007B800BF0805002058
:100A5C0068000020E3020A080B460146184600F025
:100A6C004BB9FFF714BB0000244B1A68D0075CBFCE
:100A7C0001221A60224B1A68D1075CBF01221A604E
:100A8C00204B1A68D2075CBF01221A601E4B1A68F1
:100A9C00D0075CBF01221A601C4B1A68D1075CBFDF
:100AAC0001221A601A4B1A68D2075CBF01221A6025
:100ABC00184B1A68D0075CBF01221A60164B1A68D3
:100ACC00D1075CBF01221A60144B1A68D2075CBFB5
:100ADC0001221A60124B1A68D0075CBF01221A60FF
:100AEC00104B1A68D1075CBF01221A600E4B1A68B2
:100AFC00D2075CBF01221A60704700BF4C05002072
:100B0C004805002044050020400500203C0500203D
:100B1C003805002034050020300500202C0500206D
:100B2C00280500202405002020050020184B1A68F9
:100B3C00D1075CBF01221A60164B1A68D2075CBF42
:100B4C0001221A60144B1A68D0075CBF01221A608C
:100B5C00124B1A68D1075CBF01221A60104B1A683D
:100B6C00D2075CBF01221A600E4B1A68D0075CBF1B
:100B7C0001221A600C4B1A68D1075CBF01221A6063
:100B8C000A4B1A68D2075CBF01221A60704700BF7B
:100B9C006C0500206805002064050020600500201D
:100BAC005C0500205805002054050020500500204D
:100BBC00184B1A68D1075CBF01221A60164B1A68D1
:100BCC00D2075CBF01221A60144B1A68D0075CBFB5
:100BDC0001221A60124B1A68D1075CBF01221A60FD
:100BEC00104B1A68D2075CBF01221A600E4B1A68B0
:100BFC00D0075CBF01221A600C4B1A68D1075CBF8E
:100C0C0001221A600A4B1A68D2075CBF01221A60D3
:100C1C00704700BF8C05002088050020840500204B
:100C2C00800500207C05002078050020740500203C
:100C3C0070050020244B1A68D0075CBF01221A6093
:100C4C00224B1A68D1075CBF01221A60204B1A682C
:100C5C00D2075CBF01221A601E4B1A68D0075CBF1A
:100C6C0001221A601C4B1A68D1075CBF01221A6062
:100C7C001A4B1A68D2075CBF01221A60184B1A680B
:100C8C00D0075CBF01221A60164B1A68D1075CBFF3
:100C9C0001221A60144B1A68D2075CBF01221A6039
:100CAC00124B1A68D0075CBF01221A60104B1A68ED
:100CBC00D1075CBF01221A600E4B1A68D2075CBFC9
:100CCC0001221A60704700BFBC050020B805002047
:100CDC00B4050020B0050020AC050020A8050020BC
:100CEC00A4050020A00500209C05002098050020EC
:100CFC00940500209005002010B5054C13462CB12E
:100D0C000A4601460220AFF3008010BD204610BDFC
:100D1C000000000010B5431E0A44914204D011F8A3
:100D2C00014B03F8014FF8E710BD03460244934210
:100D3C0002D003F8011BFAE77047000038B5124BDC
:100D4C0005461C68A36BD3B91820FFF7ABFA43F226
:100D5C000E33A06303804AF6CD33438041F2342333
:100D6C0083804EF26D63C3804DF6EC6303810523E3
:100D7C0043810B23838101220023C0E90423A36B4D
:100D8C0000221D615A6138BD64000020034613F82F
:100D9C00012B002AFBD1181A013870471D000A08D4
:100DAC005D000A0889000A088D000A08000000008E
:100DBC000000000000000000F3020A08E3020A0829
:100DCC00E5020A08626175640053657269616C0022
:100DDC0055534253657269616C31007479706500CA
:100DEC00706172616D00636D6400696400686E64AB
:100DFC00007374726D0066696C74006C766C0061C3
:100E0C00646448616E646C65720072656D6F7665C2
:100E1C0048616E646C657200656E756D48616E64D8
:100E2C006C657273004A534F4E53747265616D4C0E
:100E3C006F6748616E646C6572006170700025307C
:100E4C0031307520005D20002564002C20002829FD
:100E5C003A2000205B00636F6465203D200025690B
:100E6C000064657461696C73203D20000D0A006696
:100E7C00006C6E00666E00636F646500646574617F
:100E8C00696C006E6F6E6500747261636500696EEB
:100E9C00666F007761726E006572726F72007061BE
:100EAC006E696300616C6C000000000000000000C3
:100EBC00B9030A08C3030A08CD030A08D7030A08B2
:100ECC00E1030A08ED030A08F9030A0805040A08F5
:100EDC000D040A0817040A0821040A085A00252BD5
:100EEC003033643A253032750025592D256D2D256A
:100EFC00645425483A254D3A2553257A006173638D
:100F0C0074696D6500000000000000000000000026
:100F1C00A5050A08F5050A0803060A0885040A0847
:100F2C00B9050A08DB050A08C7050A08EF050A080F
:100F3C00A7050A08AB050A08000000000000000025
:100F4C00A5060A08F5060A0803070A0885040A0814
:100F5C00E1060A08A7060A08BD060A08EF060A08F1
:100F6C00D3060A08A1060A080000000000000000D1
:100F7C00DF080A08D5080A08CB080A083D080A0841
:100F8C00BF080A08B3080A08A7080A089F080A0835
:100F9C0095080A088B080A0847080A080000000090
:100FAC000000000000000000000000000000000035
:100FBC000000000000000000000000000000000025
:100FCC000000000000000000000000000000000015
:100FDC000000000000000000000000000000000005
:100FEC0000000000000000000000000000000000F5
:100FFC0000000000000000000000000043000000A2
:10100C00B3000A08A9030A0871040A0821050A0892
:10101C005D050A0891050A08E9080A08350A0A0854
:10102C00750A0A08390B0A08BD0B0A08410C0A0894
:04103C0000000000B0
:0410400000000000AC
:10104400090F0A0800000000A80F0A08C80F0A08C0
:10105400E80F0A0800000000000000000000000083
:101064000000000008100A08000000000000000052
:10107400000000000000000000000000000000006C
:10108400000000000000000000000000000000005C
:10109400000000000000000000000000000000004C
:0810A400000000000400002020
:1010AC00FFFFFFFF00000102030405060708090A01
:1010BC000B0C0D0E0F101112131415161718191AFC
:0810CC001B1C1D1E1F20280043
:0410D4007856341204
:04000005080A001CC9
:00000001FF
